{"address":"0xD3b291e9c0EFa72142e109946fa8B44399Afa9a8","bytecode":"0x60a0604052306080523480156200001557600080fd5b506200002062000026565b620000da565b7ff0c57e16840df040f15088dc2f81fe391c3923bec73e23a9662efc9c229c6a00805468010000000000000000900460ff1615620000775760405163f92ee8a960e01b815260040160405180910390fd5b80546001600160401b0390811614620000d75780546001600160401b0319166001600160401b0390811782556040519081527fc7f505b2f371ae2175ee4913f4499e1f2633a7b5936321eed1cdaeb6115181d29060200160405180910390a15b50565b6080516138ca62000104600039600081816125610152818161258a01526126c401526138ca6000f3fe6080604052600436106102e45760003560e01c80638a29e2de11610190578063c382c90d116100dc578063e22c4ddf11610095578063ecfe66991161006f578063ecfe6699146108f8578063f5b541a614610918578063fe136c4e1461093a578063fe9fbb801461098c57600080fd5b8063e22c4ddf146108ae578063e3aab35f146108ce578063e75ee3fa146108e357600080fd5b8063c382c90d146107d5578063cd4ab756146107f5578063ce148e3d1461080a578063d51ec2641461082a578063d547741f1461084a578063db2065a61461086a57600080fd5b8063a900b82811610149578063ad3cb1cc11610123578063ad3cb1cc14610726578063ad5cb2e114610757578063b3b36bb314610781578063b97371f4146107b557600080fd5b8063a900b828146106c3578063abb2b0ae146106d8578063abefb76f146106f857600080fd5b80638a29e2de1461060157806391d148541461062157806398575188146106415780639ead722214610661578063a217fddf14610699578063a8a61b85146106ae57600080fd5b80633f1732eb1161024f5780635bf134b61161020857806371c90190116101e257806371c9019014610595578063748b4ade146105b557806375b238fc146105ca5780638456cb59146105ec57600080fd5b80635bf134b61461052e5780635c975abb1461054e5780635f5817e31461057357600080fd5b80633f1732eb146104855780633f4ba83a1461049a5780633fa76e3e146104af5780634f1ef286146104cf57806352d1902d146104e257806354fd4d50146104f757600080fd5b8063248a9ca3116102a1578063248a9ca3146103c55780632ee81f78146103e55780632f2ff15d1461040557806336568abe1461042557806337756e3c146104455780633adc25971461046557600080fd5b806301ffc9a7146102e957806311b564f71461031e57806312e5ef961461034c57806316037cb41461036357806320df4359146103835780632443ea8b146103a5575b600080fd5b3480156102f557600080fd5b50610309610304366004613200565b6109ac565b60405190151581526020015b60405180910390f35b34801561032a57600080fd5b5061033e610339366004613246565b6109e3565b604051908152602001610315565b34801561035857600080fd5b50610361610a1d565b005b34801561036f57600080fd5b5061036161037e366004613279565b610a50565b34801561038f57600080fd5b5061033e6000805160206137b583398151915281565b3480156103b157600080fd5b506103616103c03660046132e0565b610ac1565b3480156103d157600080fd5b5061033e6103e0366004613334565b610c47565b3480156103f157600080fd5b50610361610400366004613246565b610c69565b34801561041157600080fd5b5061036161042036600461334d565b610c90565b34801561043157600080fd5b5061036161044036600461334d565b610cb2565b34801561045157600080fd5b50610361610460366004613246565b610ce5565b34801561047157600080fd5b50610361610480366004613279565b610da3565b34801561049157600080fd5b5061033e610e09565b3480156104a657600080fd5b50610361610e1c565b3480156104bb57600080fd5b506103616104ca366004613370565b610e3c565b6103616104dd366004613404565b61119d565b3480156104ee57600080fd5b5061033e6111bc565b34801561050357600080fd5b506040805180820190915260058152640312e302e360dc1b60208201525b60405161031591906134ea565b34801561053a57600080fd5b5061033e610549366004613246565b6111d9565b34801561055a57600080fd5b506000805160206138358339815191525460ff16610309565b34801561057f57600080fd5b50610588611213565b6040516103159190613562565b3480156105a157600080fd5b506103616105b0366004613334565b611319565b3480156105c157600080fd5b5061033e611379565b3480156105d657600080fd5b5061033e60008051602061387583398151915281565b3480156105f857600080fd5b5061036161138c565b34801561060d57600080fd5b5061036161061c366004613575565b6113ac565b34801561062d57600080fd5b5061030961063c36600461334d565b61156c565b34801561064d57600080fd5b5061036161065c366004613279565b6115a4565b34801561066d57600080fd5b5061068161067c366004613334565b611625565b6040516001600160a01b039091168152602001610315565b3480156106a557600080fd5b5061033e600081565b3480156106ba57600080fd5b5061068161165e565b3480156106cf57600080fd5b5061068161167a565b3480156106e457600080fd5b506103616106f3366004613334565b611693565b34801561070457600080fd5b50610718610713366004613279565b6116c0565b60405161031592919061360c565b34801561073257600080fd5b50610521604051806040016040528060058152602001640352e302e360dc1b81525081565b34801561076357600080fd5b5061076c611965565b60408051928352602083019190915201610315565b34801561078d57600080fd5b50610796611987565b6040805193151584529115156020840152151590820152606001610315565b3480156107c157600080fd5b506103616107d0366004613279565b6119d0565b3480156107e157600080fd5b506103616107f0366004613334565b611a18565b34801561080157600080fd5b5061033e611a78565b34801561081657600080fd5b50610361610825366004613663565b611a8b565b34801561083657600080fd5b50610361610845366004613696565b611b16565b34801561085657600080fd5b5061036161086536600461334d565b611c85565b34801561087657600080fd5b5061087f611ca1565b604080516001600160a01b03958616815260208101949094528301919091529091166060820152608001610315565b3480156108ba57600080fd5b5061033e6108c9366004613279565b611ce1565b3480156108da57600080fd5b50610681611d0d565b3480156108ef57600080fd5b5061033e611d29565b34801561090457600080fd5b50610361610913366004613334565b611d3c565b34801561092457600080fd5b5061033e6000805160206137f583398151915281565b34801561094657600080fd5b5061095a610955366004613279565b611d69565b6040805182516001600160a01b0390811682526020808501519091169082015291810151151590820152606001610315565b34801561099857600080fd5b506103096109a7366004613279565b611de2565b60006001600160e01b03198216637965db0b60e01b14806109dd57506301ffc9a760e01b6001600160e01b03198316145b92915050565b60006109ed611e10565b6001600160a01b039384166000908152600291909101602090815260408083209490951682529290925250205490565b33610a2781611de2565b610a4457604051635820429760e11b815260040160405180910390fd5b610a4d33611e33565b50565b600080516020613875833981519152610a6881611f5a565b816001600160a01b038116610a9057604051630f58058360e11b815260040160405180910390fd5b6000610a9a611e10565b60090180546001600160a01b0319166001600160a01b039590951694909417909355505050565b610ac9611f64565b806001600160a01b038116610af157604051630f58058360e11b815260040160405180910390fd5b81610afa611e10565b6001600160a01b03821660009081526005919091016020526040902060010154600160a01b900460ff16610b41576040516364822e9d60e11b815260040160405180910390fd5b610b49611f97565b600080808080805b89811015610c04578a8a82818110610b6b57610b6b6136d2565b9050602002016020810190610b809190613279565b91506001600160a01b038216610bd45760405162461bcd60e51b8152602060048201526014602482015273496e76616c69642075736572206164647265737360601b60448201526064015b60405180910390fd5b610bde828a611fcf565b509094509250610bee84876136fe565b9550610bfa83866136fe565b9450600101610b51565b506000851180610c145750600084115b15610c2457610c24888686612038565b5050505050610c40600160008051602061385583398151915255565b5050505050565b6000908152600080516020613815833981519152602052604090206001015490565b600080516020613875833981519152610c8181611f5a565b610c8b83836121fa565b505050565b610c9982610c47565b610ca281611f5a565b610cac83836123d5565b50505050565b6001600160a01b0381163314610cdb5760405163334bd91960e11b815260040160405180910390fd5b610c8b828261247a565b610ced611f64565b806001600160a01b038116610d1557604051630f58058360e11b815260040160405180910390fd5b81610d1e611e10565b6001600160a01b03821660009081526005919091016020526040902060010154600160a01b900460ff16610d65576040516364822e9d60e11b815260040160405180910390fd5b610d6d611f97565b600080610d7a8686611fcf565b5091509150610d8a858383612038565b5050610cac600160008051602061385583398151915255565b600080516020613875833981519152610dbb81611f5a565b6000610dc5611e10565b6001600160a01b039384166000908152600590910160205260408082206001908101805460ff60a01b19808216909255909616835291200180549093169092555050565b6000610e13611e10565b600a0154905090565b600080516020613875833981519152610e3481611f5a565b610a4d6124f6565b610e44611f64565b6000610e4e611e10565b9050858015801590610e5f57508085145b610ea35760405162461bcd60e51b8152602060048201526015602482015274496e76616c6964206172726179206c656e6774687360581b6044820152606401610bcb565b600682015460005b81811015610f5a57336000908152600285016020526040812060068601805483919085908110610edd57610edd6136d2565b60009182526020808320909101546001600160a01b0316835282810193909352604091820181209390935533835260048701909152812060068601805483919085908110610f2d57610f2d6136d2565b60009182526020808320909101546001600160a01b03168352820192909252604001902055600101610eab565b5060005b828110156111435760008a8a83818110610f7a57610f7a6136d2565b9050602002016020810190610f8f9190613279565b6001600160a01b031614158015610ff657508360050160008b8b84818110610fb957610fb96136d2565b9050602002016020810190610fce9190613279565b6001600160a01b03168152602081019190915260400160002060010154600160a01b900460ff165b801561101a57506000888883818110611011576110116136d2565b90506020020135115b6110665760405162461bcd60e51b815260206004820152601760248201527f496e76616c696420746f6b656e206f7220616d6f756e740000000000000000006044820152606401610bcb565b878782818110611078576110786136d2565b3360009081526002880160209081526040822092029390930135929091508c8c858181106110a8576110a86136d2565b90506020020160208101906110bd9190613279565b6001600160a01b0316815260208101919091526040016000205585156110e357856110e8565b62093a805b3360009081526004860160205260408120908c8c8581811061110c5761110c6136d2565b90506020020160208101906111219190613279565b6001600160a01b03168152602081019190915260400160002055600101610f5e565b5060008411611153576001611155565b835b33600081815260038601602052604080822093909355915190917ff4f78d5c433fe4401dcb22611fda4342741f3065242be004246b72d27cf462c491a2505050505050505050565b6111a5612556565b6111ae826125e4565b6111b882826125fc565b5050565b60006111c66126b9565b506000805160206137d583398151915290565b60006111e3611e10565b6001600160a01b039384166000908152600491909101602090815260408083209490951682529290925250205490565b6060600061121f611e10565b60068101549091508067ffffffffffffffff811115611240576112406133ee565b604051908082528060200260200182016040528015611269578160200160208202803683370190505b5092506000805b8281101561130f57600084600601828154811061128f5761128f6136d2565b60009182526020808320909101546001600160a01b03168083526005880190915260409091206001015490915060ff600160a01b909104161561130657808684815181106112df576112df6136d2565b60200260200101906001600160a01b031690816001600160a01b0316815250508260010192505b50600101611270565b5080845250505090565b60008051602061387583398151915261133181611f5a565b600061133b611e10565b905061271083826007015461135091906136fe565b111561136f5760405163a5e9992960e01b815260040160405180910390fd5b6008019190915550565b6000611383611e10565b60070154905090565b6000805160206137b58339815191526113a481611f5a565b610a4d612702565b60006113b661274b565b805490915060ff600160401b820416159067ffffffffffffffff166000811580156113de5750825b905060008267ffffffffffffffff1660011480156113fb5750303b155b905081158015611409575080155b156114275760405163f92ee8a960e01b815260040160405180910390fd5b845467ffffffffffffffff19166001178555831561145157845460ff60401b1916600160401b1785555b611459612774565b611461612774565b61146961277c565b61147460008e6123d5565b5061148d6000805160206138758339815191528e6123d5565b506114a66000805160206137b58339815191528d6123d5565b506114bf6000805160206137f58339815191528c6123d5565b5060006114ca611e10565b80546001600160a01b0319166001600160a01b038d161781556032600782015560196008820155611388600b82015560026001820155905061150c8a8a6121fa565b61151688886121fa565b50831561155d57845460ff60401b19168555604051600181527fc7f505b2f371ae2175ee4913f4499e1f2633a7b5936321eed1cdaeb6115181d29060200160405180910390a15b50505050505050505050505050565b6000918252600080516020613815833981519152602090815260408084206001600160a01b0393909316845291905290205460ff1690565b6000805160206137f58339815191526115bc81611f5a565b816115c681611de2565b6115e357604051635820429760e11b815260040160405180910390fd5b6115ec83611e33565b6040516001600160a01b038416907fb0af8c81b1348775f575d15b089945448faaedf4b8c79a3c6ab4c638aa1beeea90600090a2505050565b600061162f611e10565b6006018281548110611643576116436136d2565b6000918252602090912001546001600160a01b031692915050565b6000611668611e10565b600901546001600160a01b0316919050565b6000611684611e10565b546001600160a01b0316919050565b6000805160206138758339815191526116ab81611f5a565b60006116b5611e10565b600a01929092555050565b60608060006116cd611e10565b6001600160a01b03851660009081526003820160205260408120549192500361171057505060408051600080825260208201908152818301909252939092509050565b60068101548067ffffffffffffffff81111561172e5761172e6133ee565b604051908082528060200260200182016040528015611757578160200160208202803683370190505b5093508067ffffffffffffffff811115611773576117736133ee565b60405190808252806020026020018201604052801561179c578160200160208202803683370190505b5092506000805b82811015611956578360050160008560060183815481106117c6576117c66136d2565b60009182526020808320909101546001600160a01b0316835282019290925260400190206001015460ff600160a01b90910416801561185a57506001600160a01b0387166000908152600285016020526040812060068601805483919085908110611833576118336136d2565b60009182526020808320909101546001600160a01b03168352820192909252604001902054115b1561194e57836006018181548110611874576118746136d2565b9060005260206000200160009054906101000a90046001600160a01b03168683815181106118a4576118a46136d2565b60200260200101906001600160a01b031690816001600160a01b031681525050836002016000886001600160a01b03166001600160a01b031681526020019081526020016000206000856006018381548110611902576119026136d2565b60009182526020808320909101546001600160a01b03168352820192909252604001902054855186908490811061193b5761193b6136d2565b6020026020010181815250508160010191505b6001016117a3565b50808552808452505050915091565b6000806000611972611e10565b90508060070154816008015492509250509091565b60008080611995813361156c565b6119ad6000805160206137f58339815191523361156c565b6119c56000805160206137b58339815191523361156c565b925092509250909192565b6000805160206138758339815191526119e881611f5a565b60006119f2611e10565b600c0180546001600160a01b0319166001600160a01b0394909416939093179092555050565b600080516020613875833981519152611a3081611f5a565b6000611a3a611e10565b9050612710816008015484611a4f91906136fe565b1115611a6e576040516364acf7d960e11b815260040160405180910390fd5b6007019190915550565b6000611a82611e10565b60080154905090565b600080516020613875833981519152611aa381611f5a565b60405163a9059cbb60e01b81526001600160a01b0383811660048301526024820185905285169063a9059cbb906044016020604051808303816000875af1158015611af2573d6000803e3d6000fd5b505050506040513d601f19601f82011682018060405250810190610c409190613711565b600080516020613875833981519152611b2e81611f5a565b6001600160a01b038316611b845760405162461bcd60e51b815260206004820152601760248201527f496e76616c6964207370656e64657220616464726573730000000000000000006044820152606401610bcb565b60008211611bd45760405162461bcd60e51b815260206004820152601d60248201527f416d6f756e74206d7573742062652067726561746572207468616e20300000006044820152606401610bcb565b60405163095ea7b360e01b81526001600160a01b0384811660048301526024820184905285169063095ea7b3906044016020604051808303816000875af1158015611c23573d6000803e3d6000fd5b505050506040513d601f19601f82011682018060405250810190611c479190613711565b610cac5760405162461bcd60e51b815260206004820152600f60248201526e105c1c1c9bdd985b0819985a5b1959608a1b6044820152606401610bcb565b611c8e82610c47565b611c9781611f5a565b610cac838361247a565b6000806000806000611cb1611e10565b6009810154600a820154600b830154600c909301546001600160a01b039283169991985092965091169350915050565b6000611ceb611e10565b6001600160a01b03909216600090815260039290920160205250604090205490565b6000611d17611e10565b600c01546001600160a01b0316919050565b6000611d33611e10565b600b0154905090565b600080516020613875833981519152611d5481611f5a565b6000611d5e611e10565b600b01929092555050565b6040805160608101825260008082526020820181905291810191909152611d8e611e10565b6001600160a01b0392831660009081526005919091016020908152604091829020825160608101845281548616815260019091015494851691810191909152600160a01b90930460ff161515908301525090565b6000611dec611e10565b6001600160a01b039092166000908152600392909201602052506040902054151590565b7e052c63247e1f47d19d5ce046630c49f7c67dcaecfb71ba98eedaab2ebca6e090565b6000611e3d611e10565b6001600160a01b0383166000908152600382016020526040812081905560068201549192505b81811015611f20576001600160a01b0384166000908152600284016020526040812060068501805483919085908110611e9e57611e9e6136d2565b60009182526020808320909101546001600160a01b03908116845283820194909452604092830182209490945591871682526004860190925290812060068501805483919085908110611ef357611ef36136d2565b60009182526020808320909101546001600160a01b03168352820192909252604001902055600101611e63565b506040516001600160a01b038416907fb0af8c81b1348775f575d15b089945448faaedf4b8c79a3c6ab4c638aa1beeea90600090a2505050565b610a4d813361278c565b6000805160206138358339815191525460ff1615611f955760405163d93c066560e01b815260040160405180910390fd5b565b600080516020613855833981519152805460011901611fc957604051633ee5aeb560e01b815260040160405180910390fd5b60029055565b600080600080611fdd611e10565b9050611fe986866127c5565b600080611ff68888612957565b909650909250905061200a88888484612aec565b6001600160a01b03909916600090815260039094016020526040909320429055509596929550935090915050565b6000612042611e10565b90506000831180156120605750600c8101546001600160a01b031615155b1561212357600c81015460405163a9059cbb60e01b81526001600160a01b039182166004820152602481018590529085169063a9059cbb906044016020604051808303816000875af11580156120ba573d6000803e3d6000fd5b505050506040513d601f19601f820116820180604052508101906120de9190613711565b6121235760405162461bcd60e51b8152602060048201526016602482015275151c985b9cd9995c881d1bc8111053c819985a5b195960521b6044820152606401610bcb565b8115610cac5760405163a9059cbb60e01b8152336004820152602481018390526001600160a01b0385169063a9059cbb906044016020604051808303816000875af1158015612176573d6000803e3d6000fd5b505050506040513d601f19601f8201168201806040525081019061219a9190613711565b610cac5760405162461bcd60e51b815260206004820152601960248201527f5472616e7366657220746f2073656e646572206661696c6564000000000000006044820152606401610bcb565b600160008051602061385583398151915255565b6000612204611e10565b905060006040518060600160405280856001600160a01b03168152602001846001600160a01b0316815260200160011515815250905080826005016000866001600160a01b03166001600160a01b0316815260200190815260200160002060008201518160000160006101000a8154816001600160a01b0302191690836001600160a01b0316021790555060208201518160010160006101000a8154816001600160a01b0302191690836001600160a01b0316021790555060408201518160010160146101000a81548160ff02191690831515021790555090505080826005016000856001600160a01b03166001600160a01b0316815260200190815260200160002060008201518160000160006101000a8154816001600160a01b0302191690836001600160a01b0316021790555060208201518160010160006101000a8154816001600160a01b0302191690836001600160a01b0316021790555060408201518160010160146101000a81548160ff02191690831515021790555090505081600601849080600181540180825580915050600190039060005260206000200160009091909190916101000a8154816001600160a01b0302191690836001600160a01b0316021790555050505050565b60006000805160206138158339815191526123f0848461156c565b612470576000848152602082815260408083206001600160a01b03871684529091529020805460ff191660011790556124263390565b6001600160a01b0316836001600160a01b0316857f2f8788117e7eff1d82e926ec794901d17c78024a50270940304540a733656f0d60405160405180910390a460019150506109dd565b60009150506109dd565b6000600080516020613815833981519152612495848461156c565b15612470576000848152602082815260408083206001600160a01b0387168085529252808320805460ff1916905551339287917ff6391f5c32d9c69d2a47ea670b442974b53935d1edc7fd64eb21e047a839171b9190a460019150506109dd565b6124fe612dbb565b600080516020613835833981519152805460ff191681557f5db9ee0a495bf2e6ff9c91a7834c1ba4fdd244a5e8aa4e537bd38aeae4b073aa335b6040516001600160a01b03909116815260200160405180910390a150565b306001600160a01b037f00000000000000000000000000000000000000000000000000000000000000001614806125c657507f00000000000000000000000000000000000000000000000000000000000000006001600160a01b03166125ba612deb565b6001600160a01b031614155b15611f955760405163703e46dd60e11b815260040160405180910390fd5b6000805160206138758339815191526111b881611f5a565b816001600160a01b03166352d1902d6040518163ffffffff1660e01b8152600401602060405180830381865afa925050508015612656575060408051601f3d908101601f1916820190925261265391810190613733565b60015b61267e57604051634c9c8ce360e01b81526001600160a01b0383166004820152602401610bcb565b6000805160206137d583398151915281146126af57604051632a87526960e21b815260048101829052602401610bcb565b610c8b8383612e01565b306001600160a01b037f00000000000000000000000000000000000000000000000000000000000000001614611f955760405163703e46dd60e11b815260040160405180910390fd5b61270a611f64565b600080516020613835833981519152805460ff191660011781557f62e78cea01bee320cd4e420270b5ea74000d11b0c9f74754ebdbfc544b05a25833612538565b6000807ff0c57e16840df040f15088dc2f81fe391c3923bec73e23a9662efc9c229c6a006109dd565b611f95612e57565b612784612e57565b611f95612e7c565b612796828261156c565b6111b85760405163e2517d3f60e01b81526001600160a01b038216600482015260248101839052604401610bcb565b60006127cf611e10565b6001600160a01b0384166000908152600382016020526040812054919250036128305760405162461bcd60e51b8152602060048201526013602482015272155cd95c881b9bdd08185d5d1a1bdc9a5e9959606a1b6044820152606401610bcb565b6001600160a01b0380841660009081526002830160209081526040808320938616835292905220546128a45760405162461bcd60e51b815260206004820152601d60248201527f55736572206e6f7420636f6e6669677572656420666f7220746f6b656e0000006044820152606401610bcb565b6001600160a01b03808416600090815260048301602090815260408083209386168352929052205461290e5760405162461bcd60e51b815260206004820152601360248201527214195c9a5bd91a58da5d1e481b9bdd081cd95d606a1b6044820152606401610bcb565b6129188383612e84565b610c8b5760405162461bcd60e51b815260206004820152601060248201526f15d85a5d081b995e1d081c195c9a5bd960821b6044820152606401610bcb565b600080600080612965611e10565b6001600160a01b0387811660008181526002840160209081526040808320948b16808452949091528082205490516370a0823160e01b8152600481019390935293945091906370a0823190602401602060405180830381865afa1580156129d0573d6000803e3d6000fd5b505050506040513d601f19601f820116820180604052508101906129f49190613733565b90506000828210612a055782612a07565b815b9050612a13818a612ede565b6040516323b872dd60e01b81526001600160a01b038d8116600483015230602483015260448201869052939a509198509650908916906323b872dd906064016020604051808303816000875af1158015612a71573d6000803e3d6000fd5b505050506040513d601f19601f82011682018060405250810190612a959190613711565b612ae15760405162461bcd60e51b815260206004820152601a60248201527f7472616e7366657246726f6d20746f20523252206661696c65640000000000006044820152606401610bcb565b505050509250925092565b6000806000612af9611e10565b6001600160a01b038088166000818152600584016020526040902060010154929350911603612c035780546001600160a01b03878116600090815260058401602052604090819020549051631a4ca37b60e21b8152908216600482015260248101879052306044820152869291909116906369328dec906064016020604051808303816000875af1158015612b92573d6000803e3d6000fd5b505050506040513d601f19601f82011682018060405250810190612bb69190613733565b14612c035760405162461bcd60e51b815260206004820152601960248201527f57697468647261776e20616d6f756e74206d69736d61746368000000000000006044820152606401610bcb565b80546001600160a01b03878116600090815260058401602052604090819020546001850154915163573ade8160e01b81529083166004820152602481018890526044810191909152898216606482015291169063573ade81906084016020604051808303816000875af1158015612c7e573d6000803e3d6000fd5b505050506040513d601f19601f82011682018060405250810190612ca29190613733565b92506000612cb0848661374c565b90508015612d8c576001600160a01b0387811660009081526005840160205260409081902054905163a9059cbb60e01b81528a831660048201526024810184905291169063a9059cbb906044016020604051808303816000875af1158015612d1c573d6000803e3d6000fd5b505050506040513d601f19601f82011682018060405250810190612d409190613711565b612d8c5760405162461bcd60e51b815260206004820152601760248201527f7472616e7366657220746f2075736572206661696c65640000000000000000006044820152606401610bcb565b8592508015612db057808611612da3576000612dad565b612dad818761374c565b92505b505094509492505050565b6000805160206138358339815191525460ff16611f9557604051638dfc202b60e01b815260040160405180910390fd5b60006000805160206137d5833981519152611684565b612e0a82613064565b6040516001600160a01b038316907fbc7cd75a20ee27fd9adebab32041f755214dbc6bffa90cc0225b39da2e5c2d3b90600090a2805115612e4f57610c8b82826130c9565b6111b861313f565b612e5f61315e565b611f9557604051631afcd79f60e31b815260040160405180910390fd5b6121e6612e57565b600080612e8f611e10565b6001600160a01b03808616600081815260048401602090815260408083209489168352938152838220549282526003850190529190912054919250612ed3916136fe565b421015949350505050565b600080600080612eec611e10565b9050612710816007015487612f01919061375f565b612f0b9190613776565b9350612710816008015487612f20919061375f565b612f2a9190613776565b60098201549093506001600160a01b031615801590612f4d5750600081600a0154115b156130015760098101546040516370a0823160e01b81526001600160a01b03878116600483015260009216906370a0823190602401602060405180830381865afa158015612f9f573d6000803e3d6000fd5b505050506040513d601f19601f82011682018060405250810190612fc39190613733565b905081600a01548110612fff57600061271083600b015487612fe5919061375f565b612fef9190613776565b9050612ffb818761374c565b9550505b505b600061300d84866136fe565b90508681111561304f5760405162461bcd60e51b815260206004820152600d60248201526c115e18d9595908185b5bdd5b9d609a1b6044820152606401610bcb565b613059818861374c565b925050509250925092565b806001600160a01b03163b60000361309a57604051634c9c8ce360e01b81526001600160a01b0382166004820152602401610bcb565b6000805160206137d583398151915280546001600160a01b0319166001600160a01b0392909216919091179055565b6060600080846001600160a01b0316846040516130e69190613798565b600060405180830381855af49150503d8060008114613121576040519150601f19603f3d011682016040523d82523d6000602084013e613126565b606091505b5091509150613136858383613178565b95945050505050565b3415611f955760405163b398979f60e01b815260040160405180910390fd5b600061316861274b565b54600160401b900460ff16919050565b60608261318d57613188826131d7565b6131d0565b81511580156131a457506001600160a01b0384163b155b156131cd57604051639996b31560e01b81526001600160a01b0385166004820152602401610bcb565b50805b9392505050565b8051156131e75780518082602001fd5b60405163d6bda27560e01b815260040160405180910390fd5b60006020828403121561321257600080fd5b81356001600160e01b0319811681146131d057600080fd5b80356001600160a01b038116811461324157600080fd5b919050565b6000806040838503121561325957600080fd5b6132628361322a565b91506132706020840161322a565b90509250929050565b60006020828403121561328b57600080fd5b6131d08261322a565b60008083601f8401126132a657600080fd5b50813567ffffffffffffffff8111156132be57600080fd5b6020830191508360208260051b85010111156132d957600080fd5b9250929050565b6000806000604084860312156132f557600080fd5b833567ffffffffffffffff81111561330c57600080fd5b61331886828701613294565b909450925061332b90506020850161322a565b90509250925092565b60006020828403121561334657600080fd5b5035919050565b6000806040838503121561336057600080fd5b823591506132706020840161322a565b6000806000806000806080878903121561338957600080fd5b863567ffffffffffffffff808211156133a157600080fd5b6133ad8a838b01613294565b909850965060208901359150808211156133c657600080fd5b506133d389828a01613294565b979a9699509760408101359660609091013595509350505050565b634e487b7160e01b600052604160045260246000fd5b6000806040838503121561341757600080fd5b6134208361322a565b9150602083013567ffffffffffffffff8082111561343d57600080fd5b818501915085601f83011261345157600080fd5b813581811115613463576134636133ee565b604051601f8201601f19908116603f0116810190838211818310171561348b5761348b6133ee565b816040528281528860208487010111156134a457600080fd5b8260208601602083013760006020848301015280955050505050509250929050565b60005b838110156134e15781810151838201526020016134c9565b50506000910152565b60208152600082518060208401526135098160408501602087016134c6565b601f01601f19169190910160400192915050565b60008151808452602080850194506020840160005b838110156135575781516001600160a01b031687529582019590820190600101613532565b509495945050505050565b6020815260006131d0602083018461351d565b600080600080600080600080610100898b03121561359257600080fd5b61359b8961322a565b97506135a960208a0161322a565b96506135b760408a0161322a565b95506135c560608a0161322a565b94506135d360808a0161322a565b93506135e160a08a0161322a565b92506135ef60c08a0161322a565b91506135fd60e08a0161322a565b90509295985092959890939650565b60408152600061361f604083018561351d565b82810360208481019190915284518083528582019282019060005b818110156136565784518352938301939183019160010161363a565b5090979650505050505050565b60008060006060848603121561367857600080fd5b6136818461322a565b92506020840135915061332b6040850161322a565b6000806000606084860312156136ab57600080fd5b6136b48461322a565b92506136c26020850161322a565b9150604084013590509250925092565b634e487b7160e01b600052603260045260246000fd5b634e487b7160e01b600052601160045260246000fd5b808201808211156109dd576109dd6136e8565b60006020828403121561372357600080fd5b815180151581146131d057600080fd5b60006020828403121561374557600080fd5b5051919050565b818103818111156109dd576109dd6136e8565b80820281158282048414176109dd576109dd6136e8565b60008261379357634e487b7160e01b600052601260045260246000fd5b500490565b600082516137aa8184602087016134c6565b919091019291505056febf233dd2aafeb4d50879c4aa5c81e96d92f6e6945c906a58f9f2d1c1631b4b26360894a13ba1a3210667c828492db98dca3e2076cc3735a920a3ca505d382bbc97667070c54ef182b0f5858b034beac1b6f3089aa2d3188bb1e8929f4fa9b92902dd7bc7dec4dceedda775e58dd541e08a116c6c53815c0bd028192f7b626800cd5ed15c6e187e77e9aee88184c21f4f2182ab5827cb3b7e07fbedcd63f033009b779b17422d0df92223018b32b4d1fa46e071723d6817e2486d003becc55f00a49807205ce4d355092ef5a8a18f56e8913cf4a201fbe287825b095693c21775a2646970667358221220b190fe26b24e4eb5a11bbcf2048b6c96a3caf78dca69b6d471a8eff53eed0f9264736f6c63430008180033","abi":[{"inputs":[],"stateMutability":"nonpayable","type":"constructor"},{"inputs":[],"name":"AccessControlBadConfirmation","type":"error"},{"inputs":[{"internalType":"address","name":"account","type":"address"},{"internalType":"bytes32","name":"neededRole","type":"bytes32"}],"name":"AccessControlUnauthorizedAccount","type":"error"},{"inputs":[{"internalType":"address","name":"target","type":"address"}],"name":"AddressEmptyCode","type":"error"},{"inputs":[{"internalType":"address","name":"implementation","type":"address"}],"name":"ERC1967InvalidImplementation","type":"error"},{"inputs":[],"name":"ERC1967NonPayable","type":"error"},{"inputs":[],"name":"EnforcedPause","type":"error"},{"inputs":[],"name":"ExpectedPause","type":"error"},{"inputs":[],"name":"FailedCall","type":"error"},{"inputs":[],"name":"InvalidFeesBPS","type":"error"},{"inputs":[],"name":"InvalidInitialization","type":"error"},{"inputs":[],"name":"InvalidTipsBPS","type":"error"},{"inputs":[],"name":"InvalidTokenAddress","type":"error"},{"inputs":[],"name":"NotInitializing","type":"error"},{"inputs":[],"name":"ReentrancyGuardReentrantCall","type":"error"},{"inputs":[],"name":"TokenNotAuthorized","type":"error"},{"inputs":[],"name":"UUPSUnauthorizedCallContext","type":"error"},{"inputs":[{"internalType":"bytes32","name":"slot","type":"bytes32"}],"name":"UUPSUnsupportedProxiableUUID","type":"error"},{"inputs":[],"name":"UserNotAuthorized","type":"error"},{"anonymous":false,"inputs":[{"indexed":true,"internalType":"address","name":"user","type":"address"}],"name":"ConfiguredR2R","type":"event"},{"anonymous":false,"inputs":[{"indexed":false,"internalType":"uint64","name":"version","type":"uint64"}],"name":"Initialized","type":"event"},{"anonymous":false,"inputs":[{"indexed":false,"internalType":"address","name":"account","type":"address"}],"name":"Paused","type":"event"},{"anonymous":false,"inputs":[{"indexed":true,"internalType":"address","name":"user","type":"address"}],"name":"RevokedR2R","type":"event"},{"anonymous":false,"inputs":[{"indexed":true,"internalType":"bytes32","name":"role","type":"bytes32"},{"indexed":true,"internalType":"bytes32","name":"previousAdminRole","type":"bytes32"},{"indexed":true,"internalType":"bytes32","name":"newAdminRole","type":"bytes32"}],"name":"RoleAdminChanged","type":"event"},{"anonymous":false,"inputs":[{"indexed":true,"internalType":"bytes32","name":"role","type":"bytes32"},{"indexed":true,"internalType":"address","name":"account","type":"address"},{"indexed":true,"internalType":"address","name":"sender","type":"address"}],"name":"RoleGranted","type":"event"},{"anonymous":false,"inputs":[{"indexed":true,"internalType":"bytes32","name":"role","type":"bytes32"},{"indexed":true,"internalType":"address","name":"account","type":"address"},{"indexed":true,"internalType":"address","name":"sender","type":"address"}],"name":"RoleRevoked","type":"event"},{"anonymous":false,"inputs":[{"indexed":false,"internalType":"address","name":"account","type":"address"}],"name":"Unpaused","type":"event"},{"anonymous":false,"inputs":[{"indexed":true,"internalType":"address","name":"implementation","type":"address"}],"name":"Upgraded","type":"event"},{"inputs":[],"name":"ADMIN_ROLE","outputs":[{"internalType":"bytes32","name":"","type":"bytes32"}],"stateMutability":"view","type":"function"},{"inputs":[],"name":"DEFAULT_ADMIN_ROLE","outputs":[{"internalType":"bytes32","name":"","type":"bytes32"}],"stateMutability":"view","type":"function"},{"inputs":[],"name":"EMERGENCY_ROLE","outputs":[{"internalType":"bytes32","name":"","type":"bytes32"}],"stateMutability":"view","type":"function"},{"inputs":[],"name":"OPERATOR_ROLE","outputs":[{"internalType":"bytes32","name":"","type":"bytes32"}],"stateMutability":"view","type":"function"},{"inputs":[],"name":"UPGRADE_INTERFACE_VERSION","outputs":[{"internalType":"string","name":"","type":"string"}],"stateMutability":"view","type":"function"},{"inputs":[{"internalType":"address","name":"user","type":"address"},{"internalType":"address","name":"token","type":"address"}],"name":"allowedMaxAmounts","outputs":[{"internalType":"uint256","name":"","type":"uint256"}],"stateMutability":"view","type":"function"},{"inputs":[{"internalType":"address","name":"token","type":"address"},{"internalType":"address","name":"supplyToken","type":"address"}],"name":"authorizeTokenPair","outputs":[],"stateMutability":"nonpayable","type":"function"},{"inputs":[{"internalType":"address[]","name":"users","type":"address[]"},{"internalType":"address","name":"token","type":"address"}],"name":"batchRent2Repay","outputs":[],"stateMutability":"nonpayable","type":"function"},{"inputs":[{"internalType":"address[]","name":"tokens","type":"address[]"},{"internalType":"uint256[]","name":"amounts","type":"uint256[]"},{"internalType":"uint256","name":"period","type":"uint256"},{"internalType":"uint256","name":"timestamp","type":"uint256"}],"name":"configureRent2Repay","outputs":[],"stateMutability":"nonpayable","type":"function"},{"inputs":[],"name":"daoFeeReductionBPS","outputs":[{"internalType":"uint256","name":"","type":"uint256"}],"stateMutability":"view","type":"function"},{"inputs":[],"name":"daoFeeReductionMinimumAmount","outputs":[{"internalType":"uint256","name":"","type":"uint256"}],"stateMutability":"view","type":"function"},{"inputs":[],"name":"daoFeeReductionToken","outputs":[{"internalType":"address","name":"","type":"address"}],"stateMutability":"view","type":"function"},{"inputs":[],"name":"daoFeesBPS","outputs":[{"internalType":"uint256","name":"","type":"uint256"}],"stateMutability":"view","type":"function"},{"inputs":[],"name":"daoTreasuryAddress","outputs":[{"internalType":"address","name":"","type":"address"}],"stateMutability":"view","type":"function"},{"inputs":[{"internalType":"address","name":"token","type":"address"},{"internalType":"uint256","name":"amount","type":"uint256"},{"internalType":"address","name":"to","type":"address"}],"name":"emergencyTokenRecovery","outputs":[],"stateMutability":"nonpayable","type":"function"},{"inputs":[],"name":"getActiveTokens","outputs":[{"internalType":"address[]","name":"activeTokens","type":"address[]"}],"stateMutability":"view","type":"function"},{"inputs":[],"name":"getDaoFeeReductionConfiguration","outputs":[{"internalType":"address","name":"token","type":"address"},{"internalType":"uint256","name":"minimumAmount","type":"uint256"},{"internalType":"uint256","name":"reductionPercentage","type":"uint256"},{"internalType":"address","name":"treasuryAddress","type":"address"}],"stateMutability":"view","type":"function"},{"inputs":[],"name":"getFeeConfiguration","outputs":[{"internalType":"uint256","name":"daoFees","type":"uint256"},{"internalType":"uint256","name":"senderTips","type":"uint256"}],"stateMutability":"view","type":"function"},{"inputs":[{"internalType":"bytes32","name":"role","type":"bytes32"}],"name":"getRoleAdmin","outputs":[{"internalType":"bytes32","name":"","type":"bytes32"}],"stateMutability":"view","type":"function"},{"inputs":[{"internalType":"address","name":"user","type":"address"}],"name":"getUserConfigs","outputs":[{"internalType":"address[]","name":"tokens","type":"address[]"},{"internalType":"uint256[]","name":"maxAmounts","type":"uint256[]"}],"stateMutability":"view","type":"function"},{"inputs":[{"internalType":"address","name":"token","type":"address"},{"internalType":"address","name":"spender","type":"address"},{"internalType":"uint256","name":"amount","type":"uint256"}],"name":"giveApproval","outputs":[],"stateMutability":"nonpayable","type":"function"},{"inputs":[{"internalType":"bytes32","name":"role","type":"bytes32"},{"internalType":"address","name":"account","type":"address"}],"name":"grantRole","outputs":[],"stateMutability":"nonpayable","type":"function"},{"inputs":[{"internalType":"bytes32","name":"role","type":"bytes32"},{"internalType":"address","name":"account","type":"address"}],"name":"hasRole","outputs":[{"internalType":"bool","name":"","type":"bool"}],"stateMutability":"view","type":"function"},{"inputs":[{"internalType":"address","name":"admin","type":"address"},{"internalType":"address","name":"emergency","type":"address"},{"internalType":"address","name":"operator","type":"address"},{"internalType":"address","name":"_rmm","type":"address"},{"internalType":"address","name":"wxdaiToken","type":"address"},{"internalType":"address","name":"wxdaiArmmToken","type":"address"},{"internalType":"address","name":"usdcToken","type":"address"},{"internalType":"address","name":"usdcArmmToken","type":"address"}],"name":"initialize","outputs":[],"stateMutability":"nonpayable","type":"function"},{"inputs":[{"internalType":"address","name":"user","type":"address"}],"name":"isAuthorized","outputs":[{"internalType":"bool","name":"","type":"bool"}],"stateMutability":"view","type":"function"},{"inputs":[{"internalType":"address","name":"user","type":"address"}],"name":"lastRepayTimestamps","outputs":[{"internalType":"uint256","name":"","type":"uint256"}],"stateMutability":"view","type":"function"},{"inputs":[],"name":"pause","outputs":[],"stateMutability":"nonpayable","type":"function"},{"inputs":[],"name":"paused","outputs":[{"internalType":"bool","name":"","type":"bool"}],"stateMutability":"view","type":"function"},{"inputs":[{"internalType":"address","name":"user","type":"address"},{"internalType":"address","name":"token","type":"address"}],"name":"periodicity","outputs":[{"internalType":"uint256","name":"","type":"uint256"}],"stateMutability":"view","type":"function"},{"inputs":[],"name":"proxiableUUID","outputs":[{"internalType":"bytes32","name":"","type":"bytes32"}],"stateMutability":"view","type":"function"},{"inputs":[{"internalType":"address","name":"user","type":"address"}],"name":"removeUser","outputs":[],"stateMutability":"nonpayable","type":"function"},{"inputs":[{"internalType":"bytes32","name":"role","type":"bytes32"},{"internalType":"address","name":"callerConfirmation","type":"address"}],"name":"renounceRole","outputs":[],"stateMutability":"nonpayable","type":"function"},{"inputs":[{"internalType":"address","name":"user","type":"address"},{"internalType":"address","name":"token","type":"address"}],"name":"rent2repay","outputs":[],"stateMutability":"nonpayable","type":"function"},{"inputs":[],"name":"revokeRent2RepayAll","outputs":[],"stateMutability":"nonpayable","type":"function"},{"inputs":[{"internalType":"bytes32","name":"role","type":"bytes32"},{"internalType":"address","name":"account","type":"address"}],"name":"revokeRole","outputs":[],"stateMutability":"nonpayable","type":"function"},{"inputs":[],"name":"rmm","outputs":[{"internalType":"contract IRMM","name":"","type":"address"}],"stateMutability":"view","type":"function"},{"inputs":[],"name":"senderTipsBPS","outputs":[{"internalType":"uint256","name":"","type":"uint256"}],"stateMutability":"view","type":"function"},{"inputs":[{"internalType":"bytes4","name":"interfaceId","type":"bytes4"}],"name":"supportsInterface","outputs":[{"internalType":"bool","name":"","type":"bool"}],"stateMutability":"view","type":"function"},{"inputs":[{"internalType":"address","name":"token","type":"address"}],"name":"tokenConfig","outputs":[{"components":[{"internalType":"address","name":"token","type":"address"},{"internalType":"address","name":"supplyToken","type":"address"},{"internalType":"bool","name":"active","type":"bool"}],"internalType":"struct Rent2Repay.TokenConfig","name":"","type":"tuple"}],"stateMutability":"view","type":"function"},{"inputs":[{"internalType":"uint256","name":"index","type":"uint256"}],"name":"tokenList","outputs":[{"internalType":"address","name":"","type":"address"}],"stateMutability":"view","type":"function"},{"inputs":[{"internalType":"address","name":"token","type":"address"}],"name":"unauthorizeToken","outputs":[],"stateMutability":"nonpayable","type":"function"},{"inputs":[],"name":"unpause","outputs":[],"stateMutability":"nonpayable","type":"function"},{"inputs":[{"internalType":"uint256","name":"newMinimumAmount","type":"uint256"}],"name":"updateDaoFeeReductionMinimumAmount","outputs":[],"stateMutability":"nonpayable","type":"function"},{"inputs":[{"internalType":"uint256","name":"newPercentage","type":"uint256"}],"name":"updateDaoFeeReductionPercentage","outputs":[],"stateMutability":"nonpayable","type":"function"},{"inputs":[{"internalType":"address","name":"newToken","type":"address"}],"name":"updateDaoFeeReductionToken","outputs":[],"stateMutability":"nonpayable","type":"function"},{"inputs":[{"internalType":"uint256","name":"newFeesBPS","type":"uint256"}],"name":"updateDaoFees","outputs":[],"stateMutability":"nonpayable","type":"function"},{"inputs":[{"internalType":"address","name":"newAddress","type":"address"}],"name":"updateDaoTreasuryAddress","outputs":[],"stateMutability":"nonpayable","type":"function"},{"inputs":[{"internalType":"uint256","name":"newTipsBPS","type":"uint256"}],"name":"updateSenderTips","outputs":[],"stateMutability":"nonpayable","type":"function"},{"inputs":[{"internalType":"address","name":"newImplementation","type":"address"},{"internalType":"bytes","name":"data","type":"bytes"}],"name":"upgradeToAndCall","outputs":[],"stateMutability":"payable","type":"function"},{"inputs":[],"name":"version","outputs":[{"internalType":"string","name":"","type":"string"}],"stateMutability":"pure","type":"function"},{"inputs":[],"name":"whoami","outputs":[{"internalType":"bool","name":"isAdmin","type":"bool"},{"internalType":"bool","name":"isOperator","type":"bool"},{"internalType":"bool","name":"isEmergency","type":"bool"}],"stateMutability":"view","type":"function"}]}